S01200004543555F4D61737465722E737265636A
S11300000C942A000C9434000C9434000C943400A6
S11300100C9434000C9434000C9434000C9434008C
S11300200C9434000C9434000C9434000C9434007C
S11300300C9434000C9434000C9434000C9434006C
S11300400C9434000C9434000C9434000C9434005C
S11300500C94340011241FBECFE5D8E0DEBFCDBF21
S11300600E94AC000C94E3000C940000843008F06F
S113007072C0683008F06FC04130A1F5813089F05A
S113008028F08230C9F0833011F108952AB381E059
S113009090E002C0880F991F6A95E2F7822B8ABB11
S11300A0089527B381E090E002C0880F991F6A95F4
S11300B0E2F7822B87BB089524B381E090E002C06D
S11300C0880F991F6A95E2F7822B84BB089521B3A8
S11300D081E090E002C0880F991F6A95E2F7822BB5
S11300E081BB0895411137C0813091F028F08230EE
S11300F0D9F0833029F108952AB381E090E002C059
S1130100880F991F6A95E2F7809582238ABB089528
S113011027B381E090E002C0880F991F6A95E2F747
S11301208095822387BB089524B381E090E002C0C8
S1130130880F991F6A95E2F78095822384BB0895FE
S113014021B381E090E002C0880F991F6A95E2F71D
S11301508095822381BB08950E94B5000E94D0003F
S11301600E94DF000E94CC00FBCF41E064E081E00C
S11301700E94360041E065E081E00E94360040E0E4
S113018066E081E00E94360041E067E081E00E9481
S113019036006C9A6E9A08958FB9779BFECF0895B6
S11301A0539A549A80B5806880BD80B5826080BDC2
S11301B080B5846080BD10BC87E689B908955F9BD3
S10D01C0FECF8CB10895F894FFCF30
S9030000FC
