:100000000C942A000C9434000C9434000C943400AA
:100010000C9434000C9434000C9434000C94340090
:100020000C9434000C9434000C9434000C94340080
:100030000C9434000C9434000C9434000C94340070
:100040000C9434000C9434000C9434000C94340060
:100050000C94340011241FBECFE5D8E0DEBFCDBF25
:100060000E94AC000C94EE000C940000843008F068
:1000700072C0683008F06FC04130A1F5813089F05E
:1000800028F08230C9F0833011F108952AB381E05D
:1000900090E002C0880F991F6A95E2F7822B8ABB15
:1000A000089527B381E090E002C0880F991F6A95F8
:1000B000E2F7822B87BB089524B381E090E002C071
:1000C000880F991F6A95E2F7822B84BB089521B3AC
:1000D00081E090E002C0880F991F6A95E2F7822BB9
:1000E00081BB0895411137C0813091F028F08230F2
:1000F000D9F0833029F108952AB381E090E002C05D
:10010000880F991F6A95E2F7809582238ABB08952C
:1001100027B381E090E002C0880F991F6A95E2F74B
:100120008095822387BB089524B381E090E002C0CC
:10013000880F991F6A95E2F78095822384BB089502
:1001400021B381E090E002C0880F991F6A95E2F721
:100150008095822381BB08950E94D40041E060E035
:1001600080E00E94360041E061E080E00E943600BD
:1001700041E062E080E00E943600D2E0C1E014E09D
:100180000E94EA00813621F48BB38C278BBBF8CF19
:10019000823621F48BB38D278BBBF2CF833681F768
:1001A0008BB381278BBBECCF40E064E081E00E9401
:1001B000360040E065E081E00E94360041E066E004
:1001C00081E00E94360040E067E081E00E94360056
:1001D0006E9A0895779BFECF8FB10895F894FFCF64
:00000001FF
